{
	"data": {
		"bytecode": {
			"linkReferences": {},
			"object": "608060405234801561001057600080fd5b50610112806100206000396000f3fe6080604052348015600f57600080fd5b506004361060285760003560e01c80632a5910e214602d575b600080fd5b60336047565b604051603e9190608d565b60405180910390f35b6000426040516020016058919060c3565b6040516020818303038152906040528051906020012060001c905090565b6000819050919050565b6087816076565b82525050565b600060208201905060a060008301846080565b92915050565b6000819050919050565b60bd60b9826076565b60a6565b82525050565b600060cd828460b0565b6020820191508190509291505056fea2646970667358221220adae73cc10486deda17dcf700272ccffa3182941ee484c88460a31343b6d412c64736f6c634300080c0033",
			"opcodes": "PUSH1 0x80 PUSH1 0x40 MSTORE CALLVALUE DUP1 ISZERO PUSH2 0x10 JUMPI PUSH1 0x0 DUP1 REVERT JUMPDEST POP PUSH2 0x112 DUP1 PUSH2 0x20 PUSH1 0x0 CODECOPY PUSH1 0x0 RETURN INVALID PUSH1 0x80 PUSH1 0x40 MSTORE CALLVALUE DUP1 ISZERO PUSH1 0xF JUMPI PUSH1 0x0 DUP1 REVERT JUMPDEST POP PUSH1 0x4 CALLDATASIZE LT PUSH1 0x28 JUMPI PUSH1 0x0 CALLDATALOAD PUSH1 0xE0 SHR DUP1 PUSH4 0x2A5910E2 EQ PUSH1 0x2D JUMPI JUMPDEST PUSH1 0x0 DUP1 REVERT JUMPDEST PUSH1 0x33 PUSH1 0x47 JUMP JUMPDEST PUSH1 0x40 MLOAD PUSH1 0x3E SWAP2 SWAP1 PUSH1 0x8D JUMP JUMPDEST PUSH1 0x40 MLOAD DUP1 SWAP2 SUB SWAP1 RETURN JUMPDEST PUSH1 0x0 TIMESTAMP PUSH1 0x40 MLOAD PUSH1 0x20 ADD PUSH1 0x58 SWAP2 SWAP1 PUSH1 0xC3 JUMP JUMPDEST PUSH1 0x40 MLOAD PUSH1 0x20 DUP2 DUP4 SUB SUB DUP2 MSTORE SWAP1 PUSH1 0x40 MSTORE DUP1 MLOAD SWAP1 PUSH1 0x20 ADD KECCAK256 PUSH1 0x0 SHR SWAP1 POP SWAP1 JUMP JUMPDEST PUSH1 0x0 DUP2 SWAP1 POP SWAP2 SWAP1 POP JUMP JUMPDEST PUSH1 0x87 DUP2 PUSH1 0x76 JUMP JUMPDEST DUP3 MSTORE POP POP JUMP JUMPDEST PUSH1 0x0 PUSH1 0x20 DUP3 ADD SWAP1 POP PUSH1 0xA0 PUSH1 0x0 DUP4 ADD DUP5 PUSH1 0x80 JUMP JUMPDEST SWAP3 SWAP2 POP POP JUMP JUMPDEST PUSH1 0x0 DUP2 SWAP1 POP SWAP2 SWAP1 POP JUMP JUMPDEST PUSH1 0xBD PUSH1 0xB9 DUP3 PUSH1 0x76 JUMP JUMPDEST PUSH1 0xA6 JUMP JUMPDEST DUP3 MSTORE POP POP JUMP JUMPDEST PUSH1 0x0 PUSH1 0xCD DUP3 DUP5 PUSH1 0xB0 JUMP JUMPDEST PUSH1 0x20 DUP3 ADD SWAP2 POP DUP2 SWAP1 POP SWAP3 SWAP2 POP POP JUMP INVALID LOG2 PUSH5 0x6970667358 0x22 SLT KECCAK256 0xAD 0xAE PUSH20 0xCC10486DEDA17DCF700272CCFFA3182941EE484C DUP9 CHAINID EXP BALANCE CALLVALUE EXTCODESIZE PUSH14 0x412C64736F6C634300080C003300 "
		},
		"gasEstimates": {
			"creation": {
				"codeDepositCost": "54800",
				"executionCost": "105",
				"totalCost": "54905"
			},
			"external": {
				"hashcheck()": "infinite"
			}
		},
		"methodIdentifiers": {
			"hashcheck()": "2a5910e2"
		}
	},
	"abi": [
		{
			"inputs": [],
			"name": "hashcheck",
			"outputs": [
				{
					"internalType": "uint256",
					"name": "",
					"type": "uint256"
				}
			],
			"stateMutability": "view",
			"type": "function"
		}
	]
}