{
	"data": {
		"bytecode": {
			"linkReferences": {},
			"object": "608060405234801561001057600080fd5b50336000806101000a81548173ffffffffffffffffffffffffffffffffffffffff021916908373ffffffffffffffffffffffffffffffffffffffff160217905550610301806100606000396000f3fe608060405234801561001057600080fd5b50600436106100415760003560e01c80633b3dca7614610046578063bebc7d2b14610064578063f851a44014610080575b600080fd5b61004e61009e565b60405161005b9190610179565b60405180910390f35b61007e600480360381019061007991906101c5565b6100a4565b005b61008861013c565b6040516100959190610233565b60405180910390f35b60015481565b3373ffffffffffffffffffffffffffffffffffffffff1660008054906101000a900473ffffffffffffffffffffffffffffffffffffffff1673ffffffffffffffffffffffffffffffffffffffff1614610132576040517f08c379a0000000000000000000000000000000000000000000000000000000008152600401610129906102ab565b60405180910390fd5b8060018190555050565b60008054906101000a900473ffffffffffffffffffffffffffffffffffffffff1681565b6000819050919050565b61017381610160565b82525050565b600060208201905061018e600083018461016a565b92915050565b600080fd5b6101a281610160565b81146101ad57600080fd5b50565b6000813590506101bf81610199565b92915050565b6000602082840312156101db576101da610194565b5b60006101e9848285016101b0565b91505092915050565b600073ffffffffffffffffffffffffffffffffffffffff82169050919050565b600061021d826101f2565b9050919050565b61022d81610212565b82525050565b60006020820190506102486000830184610224565b92915050565b600082825260208201905092915050565b7f6e6f74206f776e65720000000000000000000000000000000000000000000000600082015250565b600061029560098361024e565b91506102a08261025f565b602082019050919050565b600060208201905081810360008301526102c481610288565b905091905056fea2646970667358221220a9756e7370a79d58a819a58b47b4e10e0eff684eb8b7b79073cfb8ed7fece20664736f6c634300080c0033",
			"opcodes": "PUSH1 0x80 PUSH1 0x40 MSTORE CALLVALUE DUP1 ISZERO PUSH2 0x10 JUMPI PUSH1 0x0 DUP1 REVERT JUMPDEST POP CALLER PUSH1 0x0 DUP1 PUSH2 0x100 EXP DUP2 SLOAD DUP2 PUSH20 0xFFFFFFFFFFFFFFFFFFFFFFFFFFFFFFFFFFFFFFFF MUL NOT AND SWAP1 DUP4 PUSH20 0xFFFFFFFFFFFFFFFFFFFFFFFFFFFFFFFFFFFFFFFF AND MUL OR SWAP1 SSTORE POP PUSH2 0x301 DUP1 PUSH2 0x60 PUSH1 0x0 CODECOPY PUSH1 0x0 RETURN INVALID PUSH1 0x80 PUSH1 0x40 MSTORE CALLVALUE DUP1 ISZERO PUSH2 0x10 JUMPI PUSH1 0x0 DUP1 REVERT JUMPDEST POP PUSH1 0x4 CALLDATASIZE LT PUSH2 0x41 JUMPI PUSH1 0x0 CALLDATALOAD PUSH1 0xE0 SHR DUP1 PUSH4 0x3B3DCA76 EQ PUSH2 0x46 JUMPI DUP1 PUSH4 0xBEBC7D2B EQ PUSH2 0x64 JUMPI DUP1 PUSH4 0xF851A440 EQ PUSH2 0x80 JUMPI JUMPDEST PUSH1 0x0 DUP1 REVERT JUMPDEST PUSH2 0x4E PUSH2 0x9E JUMP JUMPDEST PUSH1 0x40 MLOAD PUSH2 0x5B SWAP2 SWAP1 PUSH2 0x179 JUMP JUMPDEST PUSH1 0x40 MLOAD DUP1 SWAP2 SUB SWAP1 RETURN JUMPDEST PUSH2 0x7E PUSH1 0x4 DUP1 CALLDATASIZE SUB DUP2 ADD SWAP1 PUSH2 0x79 SWAP2 SWAP1 PUSH2 0x1C5 JUMP JUMPDEST PUSH2 0xA4 JUMP JUMPDEST STOP JUMPDEST PUSH2 0x88 PUSH2 0x13C JUMP JUMPDEST PUSH1 0x40 MLOAD PUSH2 0x95 SWAP2 SWAP1 PUSH2 0x233 JUMP JUMPDEST PUSH1 0x40 MLOAD DUP1 SWAP2 SUB SWAP1 RETURN JUMPDEST PUSH1 0x1 SLOAD DUP2 JUMP JUMPDEST CALLER PUSH20 0xFFFFFFFFFFFFFFFFFFFFFFFFFFFFFFFFFFFFFFFF AND PUSH1 0x0 DUP1 SLOAD SWAP1 PUSH2 0x100 EXP SWAP1 DIV PUSH20 0xFFFFFFFFFFFFFFFFFFFFFFFFFFFFFFFFFFFFFFFF AND PUSH20 0xFFFFFFFFFFFFFFFFFFFFFFFFFFFFFFFFFFFFFFFF AND EQ PUSH2 0x132 JUMPI PUSH1 0x40 MLOAD PUSH32 0x8C379A000000000000000000000000000000000000000000000000000000000 DUP2 MSTORE PUSH1 0x4 ADD PUSH2 0x129 SWAP1 PUSH2 0x2AB JUMP JUMPDEST PUSH1 0x40 MLOAD DUP1 SWAP2 SUB SWAP1 REVERT JUMPDEST DUP1 PUSH1 0x1 DUP2 SWAP1 SSTORE POP POP JUMP JUMPDEST PUSH1 0x0 DUP1 SLOAD SWAP1 PUSH2 0x100 EXP SWAP1 DIV PUSH20 0xFFFFFFFFFFFFFFFFFFFFFFFFFFFFFFFFFFFFFFFF AND DUP2 JUMP JUMPDEST PUSH1 0x0 DUP2 SWAP1 POP SWAP2 SWAP1 POP JUMP JUMPDEST PUSH2 0x173 DUP2 PUSH2 0x160 JUMP JUMPDEST DUP3 MSTORE POP POP JUMP JUMPDEST PUSH1 0x0 PUSH1 0x20 DUP3 ADD SWAP1 POP PUSH2 0x18E PUSH1 0x0 DUP4 ADD DUP5 PUSH2 0x16A JUMP JUMPDEST SWAP3 SWAP2 POP POP JUMP JUMPDEST PUSH1 0x0 DUP1 REVERT JUMPDEST PUSH2 0x1A2 DUP2 PUSH2 0x160 JUMP JUMPDEST DUP2 EQ PUSH2 0x1AD JUMPI PUSH1 0x0 DUP1 REVERT JUMPDEST POP JUMP JUMPDEST PUSH1 0x0 DUP2 CALLDATALOAD SWAP1 POP PUSH2 0x1BF DUP2 PUSH2 0x199 JUMP JUMPDEST SWAP3 SWAP2 POP POP JUMP JUMPDEST PUSH1 0x0 PUSH1 0x20 DUP3 DUP5 SUB SLT ISZERO PUSH2 0x1DB JUMPI PUSH2 0x1DA PUSH2 0x194 JUMP JUMPDEST JUMPDEST PUSH1 0x0 PUSH2 0x1E9 DUP5 DUP3 DUP6 ADD PUSH2 0x1B0 JUMP JUMPDEST SWAP2 POP POP SWAP3 SWAP2 POP POP JUMP JUMPDEST PUSH1 0x0 PUSH20 0xFFFFFFFFFFFFFFFFFFFFFFFFFFFFFFFFFFFFFFFF DUP3 AND SWAP1 POP SWAP2 SWAP1 POP JUMP JUMPDEST PUSH1 0x0 PUSH2 0x21D DUP3 PUSH2 0x1F2 JUMP JUMPDEST SWAP1 POP SWAP2 SWAP1 POP JUMP JUMPDEST PUSH2 0x22D DUP2 PUSH2 0x212 JUMP JUMPDEST DUP3 MSTORE POP POP JUMP JUMPDEST PUSH1 0x0 PUSH1 0x20 DUP3 ADD SWAP1 POP PUSH2 0x248 PUSH1 0x0 DUP4 ADD DUP5 PUSH2 0x224 JUMP JUMPDEST SWAP3 SWAP2 POP POP JUMP JUMPDEST PUSH1 0x0 DUP3 DUP3 MSTORE PUSH1 0x20 DUP3 ADD SWAP1 POP SWAP3 SWAP2 POP POP JUMP JUMPDEST PUSH32 0x6E6F74206F776E65720000000000000000000000000000000000000000000000 PUSH1 0x0 DUP3 ADD MSTORE POP JUMP JUMPDEST PUSH1 0x0 PUSH2 0x295 PUSH1 0x9 DUP4 PUSH2 0x24E JUMP JUMPDEST SWAP2 POP PUSH2 0x2A0 DUP3 PUSH2 0x25F JUMP JUMPDEST PUSH1 0x20 DUP3 ADD SWAP1 POP SWAP2 SWAP1 POP JUMP JUMPDEST PUSH1 0x0 PUSH1 0x20 DUP3 ADD SWAP1 POP DUP2 DUP2 SUB PUSH1 0x0 DUP4 ADD MSTORE PUSH2 0x2C4 DUP2 PUSH2 0x288 JUMP JUMPDEST SWAP1 POP SWAP2 SWAP1 POP JUMP INVALID LOG2 PUSH5 0x6970667358 0x22 SLT KECCAK256 0xA9 PUSH22 0x6E7370A79D58A819A58B47B4E10E0EFF684EB8B7B790 PUSH20 0xCFB8ED7FECE20664736F6C634300080C00330000 "
		},
		"gasEstimates": {
			"creation": {
				"codeDepositCost": "153800",
				"executionCost": "24468",
				"totalCost": "178268"
			},
			"external": {
				"admin()": "2533",
				"inputValue(uint256)": "24687",
				"rand()": "2407"
			}
		},
		"methodIdentifiers": {
			"admin()": "f851a440",
			"inputValue(uint256)": "bebc7d2b",
			"rand()": "3b3dca76"
		}
	},
	"abi": [
		{
			"inputs": [],
			"stateMutability": "nonpayable",
			"type": "constructor"
		},
		{
			"inputs": [],
			"name": "admin",
			"outputs": [
				{
					"internalType": "address",
					"name": "",
					"type": "address"
				}
			],
			"stateMutability": "view",
			"type": "function"
		},
		{
			"inputs": [
				{
					"internalType": "uint256",
					"name": "inputVal",
					"type": "uint256"
				}
			],
			"name": "inputValue",
			"outputs": [],
			"stateMutability": "nonpayable",
			"type": "function"
		},
		{
			"inputs": [],
			"name": "rand",
			"outputs": [
				{
					"internalType": "uint256",
					"name": "",
					"type": "uint256"
				}
			],
			"stateMutability": "view",
			"type": "function"
		}
	]
}