{
	"allPractice/hashing.sol": {
		"generatehash": {
			"abi": [
				{
					"inputs": [
						{
							"internalType": "address",
							"name": "orancleaddress",
							"type": "address"
						}
					],
					"stateMutability": "nonpayable",
					"type": "constructor"
				},
				{
					"inputs": [
						{
							"internalType": "uint256",
							"name": "range",
							"type": "uint256"
						}
					],
					"name": "hashorancle",
					"outputs": [
						{
							"internalType": "uint256",
							"name": "",
							"type": "uint256"
						}
					],
					"stateMutability": "view",
					"type": "function"
				}
			],
			"devdoc": {
				"kind": "dev",
				"methods": {},
				"version": 1
			},
			"evm": {
				"assembly": "    /* \"allPractice/hashing.sol\":810:1137  contract generatehash{... */\n  mstore(0x40, 0x80)\n    /* \"allPractice/hashing.sol\":858:940  constructor(address orancleaddress){... */\n  callvalue\n  dup1\n  iszero\n  tag_1\n  jumpi\n  0x00\n  dup1\n  revert\ntag_1:\n  pop\n  mload(0x40)\n  sub(codesize, bytecodeSize)\n  dup1\n  bytecodeSize\n  dup4\n  codecopy\n  dup2\n  dup2\n  add\n  0x40\n  mstore\n  dup2\n  add\n  swap1\n  tag_2\n  swap2\n  swap1\n  tag_3\n  jump\t// in\ntag_2:\n    /* \"allPractice/hashing.sol\":921:935  orancleaddress */\n  dup1\n    /* \"allPractice/hashing.sol\":905:911  oracle */\n  0x00\n  dup1\n    /* \"allPractice/hashing.sol\":905:936  oracle = Oracle(orancleaddress) */\n  0x0100\n  exp\n  dup2\n  sload\n  dup2\n  0xffffffffffffffffffffffffffffffffffffffff\n  mul\n  not\n  and\n  swap1\n  dup4\n  0xffffffffffffffffffffffffffffffffffffffff\n  and\n  mul\n  or\n  swap1\n  sstore\n  pop\n    /* \"allPractice/hashing.sol\":858:940  constructor(address orancleaddress){... */\n  pop\n    /* \"allPractice/hashing.sol\":810:1137  contract generatehash{... */\n  jump(tag_6)\n    /* \"#utility.yul\":88:205   */\ntag_8:\n    /* \"#utility.yul\":197:198   */\n  0x00\n    /* \"#utility.yul\":194:195   */\n  dup1\n    /* \"#utility.yul\":187:199   */\n  revert\n    /* \"#utility.yul\":334:460   */\ntag_10:\n    /* \"#utility.yul\":371:378   */\n  0x00\n    /* \"#utility.yul\":411:453   */\n  0xffffffffffffffffffffffffffffffffffffffff\n    /* \"#utility.yul\":404:409   */\n  dup3\n    /* \"#utility.yul\":400:454   */\n  and\n    /* \"#utility.yul\":389:454   */\n  swap1\n  pop\n    /* \"#utility.yul\":334:460   */\n  swap2\n  swap1\n  pop\n  jump\t// out\n    /* \"#utility.yul\":466:562   */\ntag_11:\n    /* \"#utility.yul\":503:510   */\n  0x00\n    /* \"#utility.yul\":532:556   */\n  tag_20\n    /* \"#utility.yul\":550:555   */\n  dup3\n    /* \"#utility.yul\":532:556   */\n  tag_10\n  jump\t// in\ntag_20:\n    /* \"#utility.yul\":521:556   */\n  swap1\n  pop\n    /* \"#utility.yul\":466:562   */\n  swap2\n  swap1\n  pop\n  jump\t// out\n    /* \"#utility.yul\":568:690   */\ntag_12:\n    /* \"#utility.yul\":641:665   */\n  tag_22\n    /* \"#utility.yul\":659:664   */\n  dup2\n    /* \"#utility.yul\":641:665   */\n  tag_11\n  jump\t// in\ntag_22:\n    /* \"#utility.yul\":634:639   */\n  dup2\n    /* \"#utility.yul\":631:666   */\n  eq\n    /* \"#utility.yul\":621:684   */\n  tag_23\n  jumpi\n    /* \"#utility.yul\":680:681   */\n  0x00\n    /* \"#utility.yul\":677:678   */\n  dup1\n    /* \"#utility.yul\":670:682   */\n  revert\n    /* \"#utility.yul\":621:684   */\ntag_23:\n    /* \"#utility.yul\":568:690   */\n  pop\n  jump\t// out\n    /* \"#utility.yul\":696:839   */\ntag_13:\n    /* \"#utility.yul\":753:758   */\n  0x00\n    /* \"#utility.yul\":784:790   */\n  dup2\n    /* \"#utility.yul\":778:791   */\n  mload\n    /* \"#utility.yul\":769:791   */\n  swap1\n  pop\n    /* \"#utility.yul\":800:833   */\n  tag_25\n    /* \"#utility.yul\":827:832   */\n  dup2\n    /* \"#utility.yul\":800:833   */\n  tag_12\n  jump\t// in\ntag_25:\n    /* \"#utility.yul\":696:839   */\n  swap3\n  swap2\n  pop\n  pop\n  jump\t// out\n    /* \"#utility.yul\":845:1196   */\ntag_3:\n    /* \"#utility.yul\":915:921   */\n  0x00\n    /* \"#utility.yul\":964:966   */\n  0x20\n    /* \"#utility.yul\":952:961   */\n  dup3\n    /* \"#utility.yul\":943:950   */\n  dup5\n    /* \"#utility.yul\":939:962   */\n  sub\n    /* \"#utility.yul\":935:967   */\n  slt\n    /* \"#utility.yul\":932:1051   */\n  iszero\n  tag_27\n  jumpi\n    /* \"#utility.yul\":970:1049   */\n  tag_28\n  tag_8\n  jump\t// in\ntag_28:\n    /* \"#utility.yul\":932:1051   */\ntag_27:\n    /* \"#utility.yul\":1090:1091   */\n  0x00\n    /* \"#utility.yul\":1115:1179   */\n  tag_29\n    /* \"#utility.yul\":1171:1178   */\n  dup5\n    /* \"#utility.yul\":1162:1168   */\n  dup3\n    /* \"#utility.yul\":1151:1160   */\n  dup6\n    /* \"#utility.yul\":1147:1169   */\n  add\n    /* \"#utility.yul\":1115:1179   */\n  tag_13\n  jump\t// in\ntag_29:\n    /* \"#utility.yul\":1105:1179   */\n  swap2\n  pop\n    /* \"#utility.yul\":1061:1189   */\n  pop\n    /* \"#utility.yul\":845:1196   */\n  swap3\n  swap2\n  pop\n  pop\n  jump\t// out\n    /* \"allPractice/hashing.sol\":810:1137  contract generatehash{... */\ntag_6:\n  dataSize(sub_0)\n  dup1\n  dataOffset(sub_0)\n  0x00\n  codecopy\n  0x00\n  return\nstop\n\nsub_0: assembly {\n        /* \"allPractice/hashing.sol\":810:1137  contract generatehash{... */\n      mstore(0x40, 0x80)\n      callvalue\n      dup1\n      iszero\n      tag_1\n      jumpi\n      0x00\n      dup1\n      revert\n    tag_1:\n      pop\n      jumpi(tag_2, lt(calldatasize, 0x04))\n      shr(0xe0, calldataload(0x00))\n      dup1\n      0x244415ea\n      eq\n      tag_3\n      jumpi\n    tag_2:\n      0x00\n      dup1\n      revert\n        /* \"allPractice/hashing.sol\":946:1134  function hashorancle(uint range) public view  returns(uint){... */\n    tag_3:\n      tag_4\n      0x04\n      dup1\n      calldatasize\n      sub\n      dup2\n      add\n      swap1\n      tag_5\n      swap2\n      swap1\n      tag_6\n      jump\t// in\n    tag_5:\n      tag_7\n      jump\t// in\n    tag_4:\n      mload(0x40)\n      tag_8\n      swap2\n      swap1\n      tag_9\n      jump\t// in\n    tag_8:\n      mload(0x40)\n      dup1\n      swap2\n      sub\n      swap1\n      return\n    tag_7:\n        /* \"allPractice/hashing.sol\":1000:1004  uint */\n      0x00\n        /* \"allPractice/hashing.sol\":1121:1126  range */\n      dup2\n        /* \"allPractice/hashing.sol\":1055:1061  oracle */\n      0x00\n      dup1\n      sload\n      swap1\n      0x0100\n      exp\n      swap1\n      div\n      0xffffffffffffffffffffffffffffffffffffffff\n      and\n        /* \"allPractice/hashing.sol\":1055:1066  oracle.rand */\n      0xffffffffffffffffffffffffffffffffffffffff\n      and\n      0x3b3dca76\n        /* \"allPractice/hashing.sol\":1055:1068  oracle.rand() */\n      mload(0x40)\n      dup2\n      0xffffffff\n      and\n      0xe0\n      shl\n      dup2\n      mstore\n      0x04\n      add\n      0x20\n      mload(0x40)\n      dup1\n      dup4\n      sub\n      dup2\n      dup7\n      gas\n      staticcall\n      iszero\n      dup1\n      iszero\n      tag_12\n      jumpi\n      returndatasize\n      0x00\n      dup1\n      returndatacopy\n      revert(0x00, returndatasize)\n    tag_12:\n      pop\n      pop\n      pop\n      pop\n      mload(0x40)\n      returndatasize\n      not(0x1f)\n      0x1f\n      dup3\n      add\n      and\n      dup3\n      add\n      dup1\n      0x40\n      mstore\n      pop\n      dup2\n      add\n      swap1\n      tag_13\n      swap2\n      swap1\n      tag_14\n      jump\t// in\n    tag_13:\n        /* \"allPractice/hashing.sol\":1070:1085  block.timestamp */\n      timestamp\n        /* \"allPractice/hashing.sol\":1087:1097  msg.sender */\n      caller\n        /* \"allPractice/hashing.sol\":1098:1114  block.difficulty */\n      difficulty\n        /* \"allPractice/hashing.sol\":1038:1116  abi.encodePacked(oracle.rand(), block.timestamp, msg.sender,block.difficulty ) */\n      add(0x20, mload(0x40))\n      tag_15\n      swap5\n      swap4\n      swap3\n      swap2\n      swap1\n      tag_16\n      jump\t// in\n    tag_15:\n      mload(0x40)\n      0x20\n      dup2\n      dup4\n      sub\n      sub\n      dup2\n      mstore\n      swap1\n      0x40\n      mstore\n        /* \"allPractice/hashing.sol\":1028:1117  keccak256(abi.encodePacked(oracle.rand(), block.timestamp, msg.sender,block.difficulty )) */\n      dup1\n      mload\n      swap1\n      0x20\n      add\n      keccak256\n        /* \"allPractice/hashing.sol\":1023:1118  uint(keccak256(abi.encodePacked(oracle.rand(), block.timestamp, msg.sender,block.difficulty ))) */\n      0x00\n      shr\n        /* \"allPractice/hashing.sol\":1023:1126  uint(keccak256(abi.encodePacked(oracle.rand(), block.timestamp, msg.sender,block.difficulty ))) % range */\n      tag_17\n      swap2\n      swap1\n      tag_18\n      jump\t// in\n    tag_17:\n        /* \"allPractice/hashing.sol\":1016:1126  return uint(keccak256(abi.encodePacked(oracle.rand(), block.timestamp, msg.sender,block.difficulty ))) % range */\n      swap1\n      pop\n        /* \"allPractice/hashing.sol\":946:1134  function hashorancle(uint range) public view  returns(uint){... */\n      swap2\n      swap1\n      pop\n      jump\t// out\n        /* \"#utility.yul\":88:205   */\n    tag_20:\n        /* \"#utility.yul\":197:198   */\n      0x00\n        /* \"#utility.yul\":194:195   */\n      dup1\n        /* \"#utility.yul\":187:199   */\n      revert\n        /* \"#utility.yul\":334:411   */\n    tag_22:\n        /* \"#utility.yul\":371:378   */\n      0x00\n        /* \"#utility.yul\":400:405   */\n      dup2\n        /* \"#utility.yul\":389:405   */\n      swap1\n      pop\n        /* \"#utility.yul\":334:411   */\n      swap2\n      swap1\n      pop\n      jump\t// out\n        /* \"#utility.yul\":417:539   */\n    tag_23:\n        /* \"#utility.yul\":490:514   */\n      tag_42\n        /* \"#utility.yul\":508:513   */\n      dup2\n        /* \"#utility.yul\":490:514   */\n      tag_22\n      jump\t// in\n    tag_42:\n        /* \"#utility.yul\":483:488   */\n      dup2\n        /* \"#utility.yul\":480:515   */\n      eq\n        /* \"#utility.yul\":470:533   */\n      tag_43\n      jumpi\n        /* \"#utility.yul\":529:530   */\n      0x00\n        /* \"#utility.yul\":526:527   */\n      dup1\n        /* \"#utility.yul\":519:531   */\n      revert\n        /* \"#utility.yul\":470:533   */\n    tag_43:\n        /* \"#utility.yul\":417:539   */\n      pop\n      jump\t// out\n        /* \"#utility.yul\":545:684   */\n    tag_24:\n        /* \"#utility.yul\":591:596   */\n      0x00\n        /* \"#utility.yul\":629:635   */\n      dup2\n        /* \"#utility.yul\":616:636   */\n      calldataload\n        /* \"#utility.yul\":607:636   */\n      swap1\n      pop\n        /* \"#utility.yul\":645:678   */\n      tag_45\n        /* \"#utility.yul\":672:677   */\n      dup2\n        /* \"#utility.yul\":645:678   */\n      tag_23\n      jump\t// in\n    tag_45:\n        /* \"#utility.yul\":545:684   */\n      swap3\n      swap2\n      pop\n      pop\n      jump\t// out\n        /* \"#utility.yul\":690:1019   */\n    tag_6:\n        /* \"#utility.yul\":749:755   */\n      0x00\n        /* \"#utility.yul\":798:800   */\n      0x20\n        /* \"#utility.yul\":786:795   */\n      dup3\n        /* \"#utility.yul\":777:784   */\n      dup5\n        /* \"#utility.yul\":773:796   */\n      sub\n        /* \"#utility.yul\":769:801   */\n      slt\n        /* \"#utility.yul\":766:885   */\n      iszero\n      tag_47\n      jumpi\n        /* \"#utility.yul\":804:883   */\n      tag_48\n      tag_20\n      jump\t// in\n    tag_48:\n        /* \"#utility.yul\":766:885   */\n    tag_47:\n        /* \"#utility.yul\":924:925   */\n      0x00\n        /* \"#utility.yul\":949:1002   */\n      tag_49\n        /* \"#utility.yul\":994:1001   */\n      dup5\n        /* \"#utility.yul\":985:991   */\n      dup3\n        /* \"#utility.yul\":974:983   */\n      dup6\n        /* \"#utility.yul\":970:992   */\n      add\n        /* \"#utility.yul\":949:1002   */\n      tag_24\n      jump\t// in\n    tag_49:\n        /* \"#utility.yul\":939:1002   */\n      swap2\n      pop\n        /* \"#utility.yul\":895:1012   */\n      pop\n        /* \"#utility.yul\":690:1019   */\n      swap3\n      swap2\n      pop\n      pop\n      jump\t// out\n        /* \"#utility.yul\":1025:1143   */\n    tag_25:\n        /* \"#utility.yul\":1112:1136   */\n      tag_51\n        /* \"#utility.yul\":1130:1135   */\n      dup2\n        /* \"#utility.yul\":1112:1136   */\n      tag_22\n      jump\t// in\n    tag_51:\n        /* \"#utility.yul\":1107:1110   */\n      dup3\n        /* \"#utility.yul\":1100:1137   */\n      mstore\n        /* \"#utility.yul\":1025:1143   */\n      pop\n      pop\n      jump\t// out\n        /* \"#utility.yul\":1149:1371   */\n    tag_9:\n        /* \"#utility.yul\":1242:1246   */\n      0x00\n        /* \"#utility.yul\":1280:1282   */\n      0x20\n        /* \"#utility.yul\":1269:1278   */\n      dup3\n        /* \"#utility.yul\":1265:1283   */\n      add\n        /* \"#utility.yul\":1257:1283   */\n      swap1\n      pop\n        /* \"#utility.yul\":1293:1364   */\n      tag_53\n        /* \"#utility.yul\":1361:1362   */\n      0x00\n        /* \"#utility.yul\":1350:1359   */\n      dup4\n        /* \"#utility.yul\":1346:1363   */\n      add\n        /* \"#utility.yul\":1337:1343   */\n      dup5\n        /* \"#utility.yul\":1293:1364   */\n      tag_25\n      jump\t// in\n    tag_53:\n        /* \"#utility.yul\":1149:1371   */\n      swap3\n      swap2\n      pop\n      pop\n      jump\t// out\n        /* \"#utility.yul\":1377:1520   */\n    tag_26:\n        /* \"#utility.yul\":1434:1439   */\n      0x00\n        /* \"#utility.yul\":1465:1471   */\n      dup2\n        /* \"#utility.yul\":1459:1472   */\n      mload\n        /* \"#utility.yul\":1450:1472   */\n      swap1\n      pop\n        /* \"#utility.yul\":1481:1514   */\n      tag_55\n        /* \"#utility.yul\":1508:1513   */\n      dup2\n        /* \"#utility.yul\":1481:1514   */\n      tag_23\n      jump\t// in\n    tag_55:\n        /* \"#utility.yul\":1377:1520   */\n      swap3\n      swap2\n      pop\n      pop\n      jump\t// out\n        /* \"#utility.yul\":1526:1877   */\n    tag_14:\n        /* \"#utility.yul\":1596:1602   */\n      0x00\n        /* \"#utility.yul\":1645:1647   */\n      0x20\n        /* \"#utility.yul\":1633:1642   */\n      dup3\n        /* \"#utility.yul\":1624:1631   */\n      dup5\n        /* \"#utility.yul\":1620:1643   */\n      sub\n        /* \"#utility.yul\":1616:1648   */\n      slt\n        /* \"#utility.yul\":1613:1732   */\n      iszero\n      tag_57\n      jumpi\n        /* \"#utility.yul\":1651:1730   */\n      tag_58\n      tag_20\n      jump\t// in\n    tag_58:\n        /* \"#utility.yul\":1613:1732   */\n    tag_57:\n        /* \"#utility.yul\":1771:1772   */\n      0x00\n        /* \"#utility.yul\":1796:1860   */\n      tag_59\n        /* \"#utility.yul\":1852:1859   */\n      dup5\n        /* \"#utility.yul\":1843:1849   */\n      dup3\n        /* \"#utility.yul\":1832:1841   */\n      dup6\n        /* \"#utility.yul\":1828:1850   */\n      add\n        /* \"#utility.yul\":1796:1860   */\n      tag_26\n      jump\t// in\n    tag_59:\n        /* \"#utility.yul\":1786:1860   */\n      swap2\n      pop\n        /* \"#utility.yul\":1742:1870   */\n      pop\n        /* \"#utility.yul\":1526:1877   */\n      swap3\n      swap2\n      pop\n      pop\n      jump\t// out\n        /* \"#utility.yul\":1883:1962   */\n    tag_27:\n        /* \"#utility.yul\":1922:1929   */\n      0x00\n        /* \"#utility.yul\":1951:1956   */\n      dup2\n        /* \"#utility.yul\":1940:1956   */\n      swap1\n      pop\n        /* \"#utility.yul\":1883:1962   */\n      swap2\n      swap1\n      pop\n      jump\t// out\n        /* \"#utility.yul\":1968:2125   */\n    tag_28:\n        /* \"#utility.yul\":2073:2118   */\n      tag_62\n        /* \"#utility.yul\":2093:2117   */\n      tag_63\n        /* \"#utility.yul\":2111:2116   */\n      dup3\n        /* \"#utility.yul\":2093:2117   */\n      tag_22\n      jump\t// in\n    tag_63:\n        /* \"#utility.yul\":2073:2118   */\n      tag_27\n      jump\t// in\n    tag_62:\n        /* \"#utility.yul\":2068:2071   */\n      dup3\n        /* \"#utility.yul\":2061:2119   */\n      mstore\n        /* \"#utility.yul\":1968:2125   */\n      pop\n      pop\n      jump\t// out\n        /* \"#utility.yul\":2131:2257   */\n    tag_29:\n        /* \"#utility.yul\":2168:2175   */\n      0x00\n        /* \"#utility.yul\":2208:2250   */\n      0xffffffffffffffffffffffffffffffffffffffff\n        /* \"#utility.yul\":2201:2206   */\n      dup3\n        /* \"#utility.yul\":2197:2251   */\n      and\n        /* \"#utility.yul\":2186:2251   */\n      swap1\n      pop\n        /* \"#utility.yul\":2131:2257   */\n      swap2\n      swap1\n      pop\n      jump\t// out\n        /* \"#utility.yul\":2263:2359   */\n    tag_30:\n        /* \"#utility.yul\":2300:2307   */\n      0x00\n        /* \"#utility.yul\":2329:2353   */\n      tag_66\n        /* \"#utility.yul\":2347:2352   */\n      dup3\n        /* \"#utility.yul\":2329:2353   */\n      tag_29\n      jump\t// in\n    tag_66:\n        /* \"#utility.yul\":2318:2353   */\n      swap1\n      pop\n        /* \"#utility.yul\":2263:2359   */\n      swap2\n      swap1\n      pop\n      jump\t// out\n        /* \"#utility.yul\":2365:2459   */\n    tag_31:\n        /* \"#utility.yul\":2398:2406   */\n      0x00\n        /* \"#utility.yul\":2446:2451   */\n      dup2\n        /* \"#utility.yul\":2442:2444   */\n      0x60\n        /* \"#utility.yul\":2438:2452   */\n      shl\n        /* \"#utility.yul\":2417:2452   */\n      swap1\n      pop\n        /* \"#utility.yul\":2365:2459   */\n      swap2\n      swap1\n      pop\n      jump\t// out\n        /* \"#utility.yul\":2465:2559   */\n    tag_32:\n        /* \"#utility.yul\":2504:2511   */\n      0x00\n        /* \"#utility.yul\":2533:2553   */\n      tag_69\n        /* \"#utility.yul\":2547:2552   */\n      dup3\n        /* \"#utility.yul\":2533:2553   */\n      tag_31\n      jump\t// in\n    tag_69:\n        /* \"#utility.yul\":2522:2553   */\n      swap1\n      pop\n        /* \"#utility.yul\":2465:2559   */\n      swap2\n      swap1\n      pop\n      jump\t// out\n        /* \"#utility.yul\":2565:2665   */\n    tag_33:\n        /* \"#utility.yul\":2604:2611   */\n      0x00\n        /* \"#utility.yul\":2633:2659   */\n      tag_71\n        /* \"#utility.yul\":2653:2658   */\n      dup3\n        /* \"#utility.yul\":2633:2659   */\n      tag_32\n      jump\t// in\n    tag_71:\n        /* \"#utility.yul\":2622:2659   */\n      swap1\n      pop\n        /* \"#utility.yul\":2565:2665   */\n      swap2\n      swap1\n      pop\n      jump\t// out\n        /* \"#utility.yul\":2671:2828   */\n    tag_34:\n        /* \"#utility.yul\":2776:2821   */\n      tag_73\n        /* \"#utility.yul\":2796:2820   */\n      tag_74\n        /* \"#utility.yul\":2814:2819   */\n      dup3\n        /* \"#utility.yul\":2796:2820   */\n      tag_30\n      jump\t// in\n    tag_74:\n        /* \"#utility.yul\":2776:2821   */\n      tag_33\n      jump\t// in\n    tag_73:\n        /* \"#utility.yul\":2771:2774   */\n      dup3\n        /* \"#utility.yul\":2764:2822   */\n      mstore\n        /* \"#utility.yul\":2671:2828   */\n      pop\n      pop\n      jump\t// out\n        /* \"#utility.yul\":2834:3513   */\n    tag_16:\n        /* \"#utility.yul\":3030:3033   */\n      0x00\n        /* \"#utility.yul\":3045:3120   */\n      tag_76\n        /* \"#utility.yul\":3116:3119   */\n      dup3\n        /* \"#utility.yul\":3107:3113   */\n      dup8\n        /* \"#utility.yul\":3045:3120   */\n      tag_28\n      jump\t// in\n    tag_76:\n        /* \"#utility.yul\":3145:3147   */\n      0x20\n        /* \"#utility.yul\":3140:3143   */\n      dup3\n        /* \"#utility.yul\":3136:3148   */\n      add\n        /* \"#utility.yul\":3129:3148   */\n      swap2\n      pop\n        /* \"#utility.yul\":3158:3233   */\n      tag_77\n        /* \"#utility.yul\":3229:3232   */\n      dup3\n        /* \"#utility.yul\":3220:3226   */\n      dup7\n        /* \"#utility.yul\":3158:3233   */\n      tag_28\n      jump\t// in\n    tag_77:\n        /* \"#utility.yul\":3258:3260   */\n      0x20\n        /* \"#utility.yul\":3253:3256   */\n      dup3\n        /* \"#utility.yul\":3249:3261   */\n      add\n        /* \"#utility.yul\":3242:3261   */\n      swap2\n      pop\n        /* \"#utility.yul\":3271:3346   */\n      tag_78\n        /* \"#utility.yul\":3342:3345   */\n      dup3\n        /* \"#utility.yul\":3333:3339   */\n      dup6\n        /* \"#utility.yul\":3271:3346   */\n      tag_34\n      jump\t// in\n    tag_78:\n        /* \"#utility.yul\":3371:3373   */\n      0x14\n        /* \"#utility.yul\":3366:3369   */\n      dup3\n        /* \"#utility.yul\":3362:3374   */\n      add\n        /* \"#utility.yul\":3355:3374   */\n      swap2\n      pop\n        /* \"#utility.yul\":3384:3459   */\n      tag_79\n        /* \"#utility.yul\":3455:3458   */\n      dup3\n        /* \"#utility.yul\":3446:3452   */\n      dup5\n        /* \"#utility.yul\":3384:3459   */\n      tag_28\n      jump\t// in\n    tag_79:\n        /* \"#utility.yul\":3484:3486   */\n      0x20\n        /* \"#utility.yul\":3479:3482   */\n      dup3\n        /* \"#utility.yul\":3475:3487   */\n      add\n        /* \"#utility.yul\":3468:3487   */\n      swap2\n      pop\n        /* \"#utility.yul\":3504:3507   */\n      dup2\n        /* \"#utility.yul\":3497:3507   */\n      swap1\n      pop\n        /* \"#utility.yul\":2834:3513   */\n      swap6\n      swap5\n      pop\n      pop\n      pop\n      pop\n      pop\n      jump\t// out\n        /* \"#utility.yul\":3519:3699   */\n    tag_35:\n        /* \"#utility.yul\":3567:3644   */\n      0x4e487b7100000000000000000000000000000000000000000000000000000000\n        /* \"#utility.yul\":3564:3565   */\n      0x00\n        /* \"#utility.yul\":3557:3645   */\n      mstore\n        /* \"#utility.yul\":3664:3668   */\n      0x12\n        /* \"#utility.yul\":3661:3662   */\n      0x04\n        /* \"#utility.yul\":3654:3669   */\n      mstore\n        /* \"#utility.yul\":3688:3692   */\n      0x24\n        /* \"#utility.yul\":3685:3686   */\n      0x00\n        /* \"#utility.yul\":3678:3693   */\n      revert\n        /* \"#utility.yul\":3705:3881   */\n    tag_18:\n        /* \"#utility.yul\":3737:3738   */\n      0x00\n        /* \"#utility.yul\":3754:3774   */\n      tag_82\n        /* \"#utility.yul\":3772:3773   */\n      dup3\n        /* \"#utility.yul\":3754:3774   */\n      tag_22\n      jump\t// in\n    tag_82:\n        /* \"#utility.yul\":3749:3774   */\n      swap2\n      pop\n        /* \"#utility.yul\":3788:3808   */\n      tag_83\n        /* \"#utility.yul\":3806:3807   */\n      dup4\n        /* \"#utility.yul\":3788:3808   */\n      tag_22\n      jump\t// in\n    tag_83:\n        /* \"#utility.yul\":3783:3808   */\n      swap3\n      pop\n        /* \"#utility.yul\":3827:3828   */\n      dup3\n        /* \"#utility.yul\":3817:3852   */\n      tag_84\n      jumpi\n        /* \"#utility.yul\":3832:3850   */\n      tag_85\n      tag_35\n      jump\t// in\n    tag_85:\n        /* \"#utility.yul\":3817:3852   */\n    tag_84:\n        /* \"#utility.yul\":3873:3874   */\n      dup3\n        /* \"#utility.yul\":3870:3871   */\n      dup3\n        /* \"#utility.yul\":3866:3875   */\n      mod\n        /* \"#utility.yul\":3861:3875   */\n      swap1\n      pop\n        /* \"#utility.yul\":3705:3881   */\n      swap3\n      swap2\n      pop\n      pop\n      jump\t// out\n\n    auxdata: 0xa264697066735822122015725cb4e205e6efa49837302c8c5bb5aefa270a1906990c0f4b86bc1be3413964736f6c634300080c0033\n}\n",
				"bytecode": {
					"linkReferences": {},
					"object": "608060405234801561001057600080fd5b5060405161049c38038061049c833981810160405281019061003291906100db565b806000806101000a81548173ffffffffffffffffffffffffffffffffffffffff021916908373ffffffffffffffffffffffffffffffffffffffff16021790555050610108565b600080fd5b600073ffffffffffffffffffffffffffffffffffffffff82169050919050565b60006100a88261007d565b9050919050565b6100b88161009d565b81146100c357600080fd5b50565b6000815190506100d5816100af565b92915050565b6000602082840312156100f1576100f0610078565b5b60006100ff848285016100c6565b91505092915050565b610385806101176000396000f3fe608060405234801561001057600080fd5b506004361061002b5760003560e01c8063244415ea14610030575b600080fd5b61004a6004803603810190610045919061016d565b610060565b60405161005791906101a9565b60405180910390f35b60008160008054906101000a900473ffffffffffffffffffffffffffffffffffffffff1673ffffffffffffffffffffffffffffffffffffffff16633b3dca766040518163ffffffff1660e01b8152600401602060405180830381865afa1580156100ce573d6000803e3d6000fd5b505050506040513d601f19601f820116820180604052508101906100f291906101d9565b42334460405160200161010894939291906102a1565b6040516020818303038152906040528051906020012060001c61012b919061031e565b9050919050565b600080fd5b6000819050919050565b61014a81610137565b811461015557600080fd5b50565b60008135905061016781610141565b92915050565b60006020828403121561018357610182610132565b5b600061019184828501610158565b91505092915050565b6101a381610137565b82525050565b60006020820190506101be600083018461019a565b92915050565b6000815190506101d381610141565b92915050565b6000602082840312156101ef576101ee610132565b5b60006101fd848285016101c4565b91505092915050565b6000819050919050565b61022161021c82610137565b610206565b82525050565b600073ffffffffffffffffffffffffffffffffffffffff82169050919050565b600061025282610227565b9050919050565b60008160601b9050919050565b600061027182610259565b9050919050565b600061028382610266565b9050919050565b61029b61029682610247565b610278565b82525050565b60006102ad8287610210565b6020820191506102bd8286610210565b6020820191506102cd828561028a565b6014820191506102dd8284610210565b60208201915081905095945050505050565b7f4e487b7100000000000000000000000000000000000000000000000000000000600052601260045260246000fd5b600061032982610137565b915061033483610137565b925082610344576103436102ef565b5b82820690509291505056fea264697066735822122015725cb4e205e6efa49837302c8c5bb5aefa270a1906990c0f4b86bc1be3413964736f6c634300080c0033",
					"opcodes": "PUSH1 0x80 PUSH1 0x40 MSTORE CALLVALUE DUP1 ISZERO PUSH2 0x10 JUMPI PUSH1 0x0 DUP1 REVERT JUMPDEST POP PUSH1 0x40 MLOAD PUSH2 0x49C CODESIZE SUB DUP1 PUSH2 0x49C DUP4 CODECOPY DUP2 DUP2 ADD PUSH1 0x40 MSTORE DUP2 ADD SWAP1 PUSH2 0x32 SWAP2 SWAP1 PUSH2 0xDB JUMP JUMPDEST DUP1 PUSH1 0x0 DUP1 PUSH2 0x100 EXP DUP2 SLOAD DUP2 PUSH20 0xFFFFFFFFFFFFFFFFFFFFFFFFFFFFFFFFFFFFFFFF MUL NOT AND SWAP1 DUP4 PUSH20 0xFFFFFFFFFFFFFFFFFFFFFFFFFFFFFFFFFFFFFFFF AND MUL OR SWAP1 SSTORE POP POP PUSH2 0x108 JUMP JUMPDEST PUSH1 0x0 DUP1 REVERT JUMPDEST PUSH1 0x0 PUSH20 0xFFFFFFFFFFFFFFFFFFFFFFFFFFFFFFFFFFFFFFFF DUP3 AND SWAP1 POP SWAP2 SWAP1 POP JUMP JUMPDEST PUSH1 0x0 PUSH2 0xA8 DUP3 PUSH2 0x7D JUMP JUMPDEST SWAP1 POP SWAP2 SWAP1 POP JUMP JUMPDEST PUSH2 0xB8 DUP2 PUSH2 0x9D JUMP JUMPDEST DUP2 EQ PUSH2 0xC3 JUMPI PUSH1 0x0 DUP1 REVERT JUMPDEST POP JUMP JUMPDEST PUSH1 0x0 DUP2 MLOAD SWAP1 POP PUSH2 0xD5 DUP2 PUSH2 0xAF JUMP JUMPDEST SWAP3 SWAP2 POP POP JUMP JUMPDEST PUSH1 0x0 PUSH1 0x20 DUP3 DUP5 SUB SLT ISZERO PUSH2 0xF1 JUMPI PUSH2 0xF0 PUSH2 0x78 JUMP JUMPDEST JUMPDEST PUSH1 0x0 PUSH2 0xFF DUP5 DUP3 DUP6 ADD PUSH2 0xC6 JUMP JUMPDEST SWAP2 POP POP SWAP3 SWAP2 POP POP JUMP JUMPDEST PUSH2 0x385 DUP1 PUSH2 0x117 PUSH1 0x0 CODECOPY PUSH1 0x0 RETURN INVALID PUSH1 0x80 PUSH1 0x40 MSTORE CALLVALUE DUP1 ISZERO PUSH2 0x10 JUMPI PUSH1 0x0 DUP1 REVERT JUMPDEST POP PUSH1 0x4 CALLDATASIZE LT PUSH2 0x2B JUMPI PUSH1 0x0 CALLDATALOAD PUSH1 0xE0 SHR DUP1 PUSH4 0x244415EA EQ PUSH2 0x30 JUMPI JUMPDEST PUSH1 0x0 DUP1 REVERT JUMPDEST PUSH2 0x4A PUSH1 0x4 DUP1 CALLDATASIZE SUB DUP2 ADD SWAP1 PUSH2 0x45 SWAP2 SWAP1 PUSH2 0x16D JUMP JUMPDEST PUSH2 0x60 JUMP JUMPDEST PUSH1 0x40 MLOAD PUSH2 0x57 SWAP2 SWAP1 PUSH2 0x1A9 JUMP JUMPDEST PUSH1 0x40 MLOAD DUP1 SWAP2 SUB SWAP1 RETURN JUMPDEST PUSH1 0x0 DUP2 PUSH1 0x0 DUP1 SLOAD SWAP1 PUSH2 0x100 EXP SWAP1 DIV PUSH20 0xFFFFFFFFFFFFFFFFFFFFFFFFFFFFFFFFFFFFFFFF AND PUSH20 0xFFFFFFFFFFFFFFFFFFFFFFFFFFFFFFFFFFFFFFFF AND PUSH4 0x3B3DCA76 PUSH1 0x40 MLOAD DUP2 PUSH4 0xFFFFFFFF AND PUSH1 0xE0 SHL DUP2 MSTORE PUSH1 0x4 ADD PUSH1 0x20 PUSH1 0x40 MLOAD DUP1 DUP4 SUB DUP2 DUP7 GAS STATICCALL ISZERO DUP1 ISZERO PUSH2 0xCE JUMPI RETURNDATASIZE PUSH1 0x0 DUP1 RETURNDATACOPY RETURNDATASIZE PUSH1 0x0 REVERT JUMPDEST POP POP POP POP PUSH1 0x40 MLOAD RETURNDATASIZE PUSH1 0x1F NOT PUSH1 0x1F DUP3 ADD AND DUP3 ADD DUP1 PUSH1 0x40 MSTORE POP DUP2 ADD SWAP1 PUSH2 0xF2 SWAP2 SWAP1 PUSH2 0x1D9 JUMP JUMPDEST TIMESTAMP CALLER DIFFICULTY PUSH1 0x40 MLOAD PUSH1 0x20 ADD PUSH2 0x108 SWAP5 SWAP4 SWAP3 SWAP2 SWAP1 PUSH2 0x2A1 JUMP JUMPDEST PUSH1 0x40 MLOAD PUSH1 0x20 DUP2 DUP4 SUB SUB DUP2 MSTORE SWAP1 PUSH1 0x40 MSTORE DUP1 MLOAD SWAP1 PUSH1 0x20 ADD KECCAK256 PUSH1 0x0 SHR PUSH2 0x12B SWAP2 SWAP1 PUSH2 0x31E JUMP JUMPDEST SWAP1 POP SWAP2 SWAP1 POP JUMP JUMPDEST PUSH1 0x0 DUP1 REVERT JUMPDEST PUSH1 0x0 DUP2 SWAP1 POP SWAP2 SWAP1 POP JUMP JUMPDEST PUSH2 0x14A DUP2 PUSH2 0x137 JUMP JUMPDEST DUP2 EQ PUSH2 0x155 JUMPI PUSH1 0x0 DUP1 REVERT JUMPDEST POP JUMP JUMPDEST PUSH1 0x0 DUP2 CALLDATALOAD SWAP1 POP PUSH2 0x167 DUP2 PUSH2 0x141 JUMP JUMPDEST SWAP3 SWAP2 POP POP JUMP JUMPDEST PUSH1 0x0 PUSH1 0x20 DUP3 DUP5 SUB SLT ISZERO PUSH2 0x183 JUMPI PUSH2 0x182 PUSH2 0x132 JUMP JUMPDEST JUMPDEST PUSH1 0x0 PUSH2 0x191 DUP5 DUP3 DUP6 ADD PUSH2 0x158 JUMP JUMPDEST SWAP2 POP POP SWAP3 SWAP2 POP POP JUMP JUMPDEST PUSH2 0x1A3 DUP2 PUSH2 0x137 JUMP JUMPDEST DUP3 MSTORE POP POP JUMP JUMPDEST PUSH1 0x0 PUSH1 0x20 DUP3 ADD SWAP1 POP PUSH2 0x1BE PUSH1 0x0 DUP4 ADD DUP5 PUSH2 0x19A JUMP JUMPDEST SWAP3 SWAP2 POP POP JUMP JUMPDEST PUSH1 0x0 DUP2 MLOAD SWAP1 POP PUSH2 0x1D3 DUP2 PUSH2 0x141 JUMP JUMPDEST SWAP3 SWAP2 POP POP JUMP JUMPDEST PUSH1 0x0 PUSH1 0x20 DUP3 DUP5 SUB SLT ISZERO PUSH2 0x1EF JUMPI PUSH2 0x1EE PUSH2 0x132 JUMP JUMPDEST JUMPDEST PUSH1 0x0 PUSH2 0x1FD DUP5 DUP3 DUP6 ADD PUSH2 0x1C4 JUMP JUMPDEST SWAP2 POP POP SWAP3 SWAP2 POP POP JUMP JUMPDEST PUSH1 0x0 DUP2 SWAP1 POP SWAP2 SWAP1 POP JUMP JUMPDEST PUSH2 0x221 PUSH2 0x21C DUP3 PUSH2 0x137 JUMP JUMPDEST PUSH2 0x206 JUMP JUMPDEST DUP3 MSTORE POP POP JUMP JUMPDEST PUSH1 0x0 PUSH20 0xFFFFFFFFFFFFFFFFFFFFFFFFFFFFFFFFFFFFFFFF DUP3 AND SWAP1 POP SWAP2 SWAP1 POP JUMP JUMPDEST PUSH1 0x0 PUSH2 0x252 DUP3 PUSH2 0x227 JUMP JUMPDEST SWAP1 POP SWAP2 SWAP1 POP JUMP JUMPDEST PUSH1 0x0 DUP2 PUSH1 0x60 SHL SWAP1 POP SWAP2 SWAP1 POP JUMP JUMPDEST PUSH1 0x0 PUSH2 0x271 DUP3 PUSH2 0x259 JUMP JUMPDEST SWAP1 POP SWAP2 SWAP1 POP JUMP JUMPDEST PUSH1 0x0 PUSH2 0x283 DUP3 PUSH2 0x266 JUMP JUMPDEST SWAP1 POP SWAP2 SWAP1 POP JUMP JUMPDEST PUSH2 0x29B PUSH2 0x296 DUP3 PUSH2 0x247 JUMP JUMPDEST PUSH2 0x278 JUMP JUMPDEST DUP3 MSTORE POP POP JUMP JUMPDEST PUSH1 0x0 PUSH2 0x2AD DUP3 DUP8 PUSH2 0x210 JUMP JUMPDEST PUSH1 0x20 DUP3 ADD SWAP2 POP PUSH2 0x2BD DUP3 DUP7 PUSH2 0x210 JUMP JUMPDEST PUSH1 0x20 DUP3 ADD SWAP2 POP PUSH2 0x2CD DUP3 DUP6 PUSH2 0x28A JUMP JUMPDEST PUSH1 0x14 DUP3 ADD SWAP2 POP PUSH2 0x2DD DUP3 DUP5 PUSH2 0x210 JUMP JUMPDEST PUSH1 0x20 DUP3 ADD SWAP2 POP DUP2 SWAP1 POP SWAP6 SWAP5 POP POP POP POP POP JUMP JUMPDEST PUSH32 0x4E487B7100000000000000000000000000000000000000000000000000000000 PUSH1 0x0 MSTORE PUSH1 0x12 PUSH1 0x4 MSTORE PUSH1 0x24 PUSH1 0x0 REVERT JUMPDEST PUSH1 0x0 PUSH2 0x329 DUP3 PUSH2 0x137 JUMP JUMPDEST SWAP2 POP PUSH2 0x334 DUP4 PUSH2 0x137 JUMP JUMPDEST SWAP3 POP DUP3 PUSH2 0x344 JUMPI PUSH2 0x343 PUSH2 0x2EF JUMP JUMPDEST JUMPDEST DUP3 DUP3 MOD SWAP1 POP SWAP3 SWAP2 POP POP JUMP INVALID LOG2 PUSH5 0x6970667358 0x22 SLT KECCAK256 ISZERO PUSH19 0x5CB4E205E6EFA49837302C8C5BB5AEFA270A19 MOD SWAP10 0xC 0xF 0x4B DUP7 0xBC SHL 0xE3 COINBASE CODECOPY PUSH5 0x736F6C6343 STOP ADDMOD 0xC STOP CALLER "
				},
				"gasEstimates": {
					"creation": {
						"codeDepositCost": "180200",
						"executionCost": "infinite",
						"totalCost": "infinite"
					},
					"external": {
						"hashorancle(uint256)": "infinite"
					}
				},
				"methodIdentifiers": {
					"hashorancle(uint256)": "244415ea"
				}
			},
			"storageLayout": {
				"storage": [
					{
						"astId": 43,
						"contract": "allPractice/hashing.sol:generatehash",
						"label": "oracle",
						"offset": 0,
						"slot": "0",
						"type": "t_contract(Oracle)40"
					}
				],
				"types": {
					"t_contract(Oracle)40": {
						"encoding": "inplace",
						"label": "contract Oracle",
						"numberOfBytes": "20"
					}
				}
			},
			"userdoc": {
				"kind": "user",
				"methods": {},
				"version": 1
			}
		}
	}
}